8=FIX.4.4|9=71|35=A|34=1|49=ORDERACC|52=20251010-12:31:58.975|56=ORDERGEN|98=0|108=30|10=155|8=FIX.4.4|9=59|35=0|34=2|49=ORDERACC|52=20251010-12:32:29.280|56=ORDERGEN|10=108|